:020000040800F2
:10000000E0060020C5000008012600084F1A00087D
:1000100000000000000000000000000000000000E0
:100020000000000000000000000000007F26000823
:1000300000000000000000007D2600088126000866
:10004000D700000800000000D7000008D700000813
:10005000D700000895010008D700000899010008A2
:1000600000000000D7000008D7000008D7000008F3
:10007000D7000008D7000008D700000800000000E3
:10008000812700080000000000000000D7000008E1
:1000900000000000D7000008D7000008551A00082B
:1000A00000000000D700000800000000D700000892
:1000B0000348854600F05CF800480047A92B00087B
:1000C000E00600200448804704480047FEE7FEE7BA
:1000D000FEE7FEE7FEE7FEE70D270008B100000897
:1000E00030B50B46014600202022012409E00D46D0
:1000F000D5409D4205D31D469540491B2546954058
:1001000040191546521E002DF1DC30BD03460B434D
:100110009B0703D009E008C9121F08C0042AFAD2BD
:1001200003E00B780370401C491C521EF9D2704743
:10013000D2B201E00270401C491EFBD2704700227F
:10014000F6E710B513460A4604461946FFF7F0FFD6
:10015000204610BD10B54843044602F039FD002882
:1001600005D00021002C02D0641E0155FAE710BD15
:10017000064C0125064E05E0E36807CC2B430C3CFA
:1001800098471034B442F7D3FFF796FF942D000838
:10019000B42D00087047000007484069402108401E
:1001A000002807D040200449486104480088401CCA
:1001B0000249088070470000000401400C00002044
:1001C00010B508480068C068400840000549096843
:1001D000C8601821034801F0FDFA024801F0E8F96F
:1001E00010BD00009C00002010B501200C490870D3
:1001F000C0030C49088002F0BFF918210A4801F039
:10020000C1FA09480068C068012108430649096825
:10021000C8600120C00304490968486210BD00009D
:1002200008000020060000209C000020704700000D
:1002300000B587B000BF1848406901214904084350
:100240001549486108464069012149040840019068
:1002500000BF00BF00BF10484069490008430E4975
:10026000486108464069012189040840019000BFA7
:1002700000BF142102A8FFF762FF01200290039043
:10028000002004900120059002A90920C00600F07A
:10029000B7F807B000BD00000010024070B504467A
:1002A00000252120005D022803D00420A063012541
:1002B0001EE0206800680E218843216808602068DD
:1002C000006840084000216808600120216C8840D7
:1002D000E16B486001212120015500BF0021202051
:1002E000015500BF606B002802D02046616B884733
:1002F000284670BDF0B502460B46002000210024C0
:100300006FE0012585401D402946002968D0156809
:1003100047000326BE40B5431560C508AE0015462C
:100320002035AD594607F70E0F26BE40B543C60827
:10033000B60017462037BD51956847000326BE40DA
:10034000B5439560556801268640B5435560D5682C
:1003500047000326BE40B543D560244D8608B6004D
:10036000AC5985072E0F0F25B5402C400925ED0609
:10037000AA4201D100250FE01D4DAA4201D101255D
:100380000AE01C4DAA4201D1022505E01A4DAA42FD
:1003900001D1032500E005258607360FB540A542AB
:1003A0001ED185072E0F0F25B5402C460F4D860810
:1003B000B600AD59A5430D4E8708BF00F5510F4D4E
:1003C0002D688D430D4E356035466D688D437560E3
:1003D0003546AD688D43B5603546ED688D43F560B3
:1003E000401C1D46C540002D8BD1F0BD08000140CA
:1003F0000004004800080048000C004800040140C8
:1004000078B50346002200240020DEE00126964055
:100410000D6835402C46002C7ED04D68022D02D050
:100420004D68122D15D1D508AE001D462035A859AE
:100430005507EE0E0F25B5400646AE43304656072B
:10044000F60E0D69B5402843D508AD001E4620368E
:100450007051186856000325B5400646AE43304635
:100460000D79AD07AD0F5600B540284318604D68B3
:10047000012D08D04D68022D05D04D68112D02D0F8
:100480004D68122D18D1986856000325B5400646D0
:10049000AE4330465600CD68B54028439860586852
:1004A000012595400646AE43304610264D6835403E
:1004B0002D09954028435860D86856000325B5405B
:1004C0000646AE43304656008D68B5402843D86096
:1004D000012636074D683540B54275D100BF3E4D07
:1004E000AD69012635433C4EB5613546AD69ED0732
:1004F000ED0F009500BF00BF384D9608B600A85913
:1005000095072E0F0F25B5400646AE433046092508
:10051000ED06AB4203D100E056E000250FE0304D80
:10052000AB4201D101250AE02E4DAB4201D102259B
:1005300005E02D4DAB4201D1032500E005259607CE
:10054000360FB5402843254D9608B600A851274DD3
:1005500028680546A5432846012636044D683540DF
:10056000B54202D1054625432846204D28606868DB
:100570000546A5432846012676044D683540B54218
:1005800002D1054625432846184D6860A8680546EF
:10059000A5432846012636054D683540B54202D1AF
:1005A000054625432846114DA860E8680546A54341
:1005B0002846012676054D683540B54202D10546EC
:1005C00025432846094DE860521C0D68D540002D92
:1005D00000D01BE778BD0000001002400800014079
:1005E0000004004800080048000C004800040140D6
:1005F000024613690B40002B01D0012000E00020CF
:100600007047000001480068704700001800002093
:1006100002464120805C20282FD100BF4020805C12
:10062000012801D10220704701234020835400BFDC
:100630002423412083541068006840084000136858
:1006400018601068006801231B0398431368186042
:100650001068006808431368186010680068012378
:1006600018431368186020234120835400BF0023DF
:100670004020835400BF0020D5E70220D3E710B507
:1006800002460B4600214120805C20282ED100BF6D
:100690004020805C012801D1022010BD01244020AF
:1006A000845400BF2424412084541068006840080A
:1006B000400014682060106801680F242402084676
:1006C000A0430146180201431068016010680068E9
:1006D000012420431468206020244120845400BF5A
:1006E00000244020845400BF0020D6E70220D4E735
:1006F0007047000070B504460D4616461149206843
:10070000096888421CD1202141200155284602F069
:1007100083F9002D05D114220B49204600F096F9EB
:1007200008E00A4802880A49204600F0C9F9012079
:100730000849087008202168C861024800F05CF888
:1007400070BD0000500000202800002000000020A4
:100750003C0000200200002070B504462068856936
:1007600020680668FF200130284000280AD0802039
:100770003040002806D0606C012108436064080204
:100780002168C86101208002284000280AD080200A
:100790003040002806D0606C082108436064C8011E
:1007A0002168C86101204002284000280AD080202A
:1007B0003040002806D0606C0221084360640802C3
:1007C0002168C861606C0B210840002803D0616C6F
:1007D000204601F0ABFA70BD70B50446206885690B
:1007E00020680668606B002804D0324629462046FF
:1007F000636B984770BD000010B504464120005D52
:1008000020280AD128214120015505486063042190
:10081000204601F099F9002010BD0220FCE70000FD
:10082000ED22000810B5044608492068096888428E
:100830000BD10648FFF7E0FF04480068406801213B
:10084000C903084301490968486010BD50000020F1
:1008500010B50446002C01D1012010BD4120005DDF
:10086000002805D1002140200155204600F07EF8E7
:10087000242141200155206800684008400021687B
:1008800008600F21090660688843216808612068B4
:1008900080680121C903884321688860E0680128D5
:1008A00006D10121C903A06808432168886005E0DA
:1008B00021218902A068084321688860E068022835
:1008C00002D18002216848602068406814490843CA
:1008D000216848602068C0680121C90388432168F5
:1008E000C860616920690843A16909020843216859
:1008F000C860216AE06908432168086020680068D0
:100900000121084321680860002060642021412003
:1009100001550020206300214220015500209CE762
:100920000080000210B504460B492068096888421F
:1009300010D10A480078012806D0208D1422101A00
:1009400081B2074802F06AF80020044908700248A2
:10095000FFF752FF10BD00005000002002000020F1
:1009600028000020704770477047704710B586B068
:100970000446142101A8FFF7E2FB1F4920688842C2
:1009800037D100BF1D4840690121490408431B4974
:10099000486108464069012149040840009000BFB1
:1009A00000BF03204002019012200290012003901A
:1009B000032004900420059001A90920C006FFF738
:1009C0001FFD00BF0D48C0690121490508430B49BF
:1009D000C8610846C069012149050840009000BF70
:1009E00000BF00220221172000F008F9172000F0B4
:1009F000F9F806B010BD000000540040001002409D
:100A000010B50446064920680968884206D11421B9
:100A1000044802F003F80248FFF7EEFE10BD0000A4
:100A2000500000202800002010B504460549206829
:100A30000968884205D10020034908700148FFF782
:100A4000DBFE10BD500000200200002070B50446FF
:100A50000D4616464120005D20282BD100BF4020C6
:100A6000005D012801D1022070BD01214020015507
:100A700000BF2221412001552021422001550020A4
:100A80006064206840688902884321684860656224
:100A90006685608D20850848E0620848606300BF75
:100AA00000214020015500BF0621204601F04CF8EE
:100AB0000020D9E70220D7E70000FFFFED22000861
:100AC00070B504460D4616464120005D20282BD106
:100AD00000BF4020005D012801D1022070BD01212E
:100AE0004020015500BF21214120015520214220F5
:100AF00001550020606420684068890288432168AD
:100B0000486065626685608D20850848E062084817
:100B1000606300BF00214020015500BF0521204631
:100B200001F012F80020D9E70220D7E70000FFFF0C
:100B3000ED22000802480068401C01490860704727
:100B40001800002010B50648006810210843044929
:100B50000860022000F006F800F018F8002010BD30
:100B60000020024070B5044600F0C4F906467D211D
:100B7000C900FFF7B5FA054600F0CAFC002221467D
:100B8000501E00F03BF8002070BD000008B500BF0B
:100B90000D488069012108430B4988610846806936
:100BA000C007C00F009000BF00BF00BF0846C0696B
:100BB000090408430449C8610846C069090408409B
:100BC000009000BF00BF08BD0010024000BFC20679
:100BD000D20E01219140024A116000BF704700000F
:100BE00080E100E000BFC206D20E01219140024A1E
:100BF000116000BF7047000000E100E070B50446DE
:100C00000D4616462946204601F0FCFC70BD00004A
:100C1000F8B5044600260025012109042068084093
:100C200088427AD100274B48C06909030840002850
:100C30000DD100BF4748C06908434649C86108460E
:100C4000C06909040840009000BF00BF0127424866
:100C50000068FF2101310840002816D13E48006895
:100C600008433D490860FFF7CDFC064606E0FFF764
:100C7000C9FC801B642801D90320F8BD36480068F0
:100C8000FF21013108400028F1D03248006A0321D9
:100C9000090208400546002D2DD060680840A84292
:100CA00029D02C48006A884305462A48006A012159
:100CB00009040843274908620846006A012109041B
:100CC00088432449086208460562E807C00F0028E7
:100CD00011D0FFF797FC064607E0FFF793FC801B57
:100CE0001E49884201D90320C7E71A48006A022139
:100CF00008400028F1D01748006A03210902884300
:100D00006168084313490862012F05D10846C0698C
:100D1000090488430F49C86100BF2078C007C00F8D
:100D2000002807D00B48006B80088000A1680843AA
:100D300008490863202120680840202807D1054879
:100D4000006B10218843E1680843024908630020D2
:100D500093E700000010024000700040881300007C
:100D600070B504460D4600265D480068C007C00FF8
:100D7000A8420ED25A48006840084000284358490B
:100D8000086008460068C007C00FA84201D00120D3
:100D900070BD022120680840022807D151484068F0
:100DA000F0218843A16808434E4948602078C00775
:100DB000C00F00285FD06068012808D1494800684A
:100DC000012149040840002815D10120E0E76068AE
:100DD000022808D14348006801214906084000283C
:100DE00009D10120D4E73F480068022108400028CB
:100DF00001D10120CCE73B48406880088000616851
:100E0000084338494860FFF7FDFB06466068012843
:100E10000FD107E0FFF7F6FB801B3349884201D969
:100E20000320B5E72F4840680C2108400428F1D181
:100E300021E0606802280FD107E0FFF7E3FB801B89
:100E40002949884201D90320A2E7264840680C219D
:100E500008400828F1D10EE007E0FFF7D3FB801B24
:100E60002149884201D9032092E71E4840680C219D
:100E700008400028F1D11A480068C007C00FA842F6
:100E80000ED91748006840084000284314490860FC
:100E900008460068C007C00FA84201D0012077E7CC
:100EA000042120680840042808D10E484068072122
:100EB00009028843E16808430A49486000F020F8C5
:100EC00008494968F02211400909084A515CC840A4
:100ED000074908600220FFF745FE002058E70000A0
:100EE0000020024000100240881300007C2D000802
:100EF0001C00002001480068704700001C00002012
:100F0000F0B589B024A001460EC9C06805AC0EC476
:100F1000089025A001460EC9C06801AC0EC404901B
:100F20000024002700250026002000902248446865
:100F30000C202040002827D0042802D0082822D1E5
:100F400002E01E48009022E00F2080042040800C28
:100F500005A90E5C1848C06A0007000F01A90F5CC4
:100F600001200004204001210904884206D13946AD
:100F70001248FFF7B5F87043054602E010483546C1
:100F80004543009503E000BF0C48009000BF00BF40
:100F9000009809B0F0BD0000020304050607080927
:100FA0000A0B0C0D0E0F10100102030405060708B2
:100FB000090A0B0C0D0E0F100010024000127A00EF
:100FC00000093D00F8B5044600252078C007C00F91
:100FD000002871D0F94840680C21084004280BD043
:100FE000F64840680840082812D1F44840680121BA
:100FF0000904084088420BD1F048006801214904E7
:10100000084000286BD06068002868D10120F8BD36
:1010100000BF6068012807D1E84800680121090481
:101020000843E649086031E0606800280ED1E348D3
:101030000068012109048843E04908600846006807
:10104000012189048843DD4908601FE060680528A4
:101050000ED1DA480068012189040843D7490860A5
:1010600008460068012109040843D44908600DE0DE
:10107000D2480068012109048843D0490860084625
:101080000068012189048843CC49086000BF60687A
:10109000002812D0FFF7B6FA054606E0FFF7B2FACD
:1010A000401B642801D90320B1E7C448006801212E
:1010B000490408400028F1D011E0FFF7A3FA0546E3
:1010C00006E0FFF79FFA401B642801D903209EE742
:1010D000BA4800680121490408400028F1D10221E2
:1010E00020680840022861D1B44840680C210840BB
:1010F00000280BD0B1484068084008281BD1AF48F1
:101100004068012109040840002814D1AB48006858
:1011100002210840002804D0E068012801D0012005
:1011200075E7A6480068F82188432169C90008438B
:10113000A24908603AE0E068002820D09F48006893
:10114000012108439D490860FFF75CFA054606E067
:10115000FFF758FA401B022801D9032057E79748A8
:101160000068022108400028F2D094480068F82165
:1011700088432169C90008439049086016E08F48F8
:101180000068400840008D490860FFF73BFA0546BB
:1011900006E0FFF737FA401B022801D9032036E7A3
:1011A00086480068022108400028F2D10821206802
:1011B0000840082831D1E069002817D07F48406AEC
:1011C000012108437D494862FFF71CFA054606E005
:1011D000FFF718FA401B022801D9032017E77748C8
:1011E000406A022108400028F2D016E07348406AA5
:1011F0004008400071494862FFF704FA054606E0DE
:10120000FFF700FA401B022801D90320FFE66B48D4
:10121000406A022108400028F2D1042120680840D9
:10122000042871D100266548C06989060840002855
:101230000DD100BF6148C06908436049C8610846D4
:10124000C06909040840009000BF00BF01265C4847
:101250000068FF2101310840002816D15848006875
:10126000084357490860FFF7CDF9054606E0FFF748
:10127000C9F9401B642801D90320C8E6504800681A
:10128000FF21013108400028F1D000BFA0680128EB
:1012900006D14A48006A01210843484908622BE008
:1012A000A06800280CD14548006A40084000434926
:1012B00008620846006A04218843404908621BE02E
:1012C000A06805280CD13D48006A042108433B4929
:1012D00008620846006A01210843384908620BE0A9
:1012E0003648006A40084000344908620846006AEF
:1012F000042188433149086200BFA068002813D048
:10130000FFF780F9054608E029E0FFF77BF9401B6D
:101310002C49884201D9032079E62848006A022135
:1013200008400028F1D011E0FFF76CF9054607E00E
:10133000FFF768F9401B2349884201D9032066E67C
:101340001E48006A022108400028F1D1012E05D173
:101350001A48C069310788431849C86100BF102185
:101360002068084010285FD1606901282CD11348FB
:10137000406B04210843114948630846406B012132
:1013800008430E494863FFF73DF9054606E0FFF7BD
:1013900039F9401B022801D9032038E60748406B81
:1013A000022108400028F2D00448406BF82188430D
:1013B000A169C90008430149486335E000100240B3
:1013C00000700040881300006069401D00280FD1A4
:1013D0004E48406B042188434C4948630846406BA3
:1013E000F8218843A169C9000843484948631BE0C4
:1013F0004648406B04210843444948630846406B13
:10140000400840004863FFF7FDF8054606E0FFF797
:10141000F9F8401B022801D90320F8E53B48406B4E
:10142000022108400028F2D1206A00286CD03748F9
:1014300040680C210840082864D0206A022847D15F
:101440003248006801210906884330490860FFF7E7
:10145000D9F8054606E0FFF7D5F8401B022801D968
:101460000320D4E5294800680121490608400028E6
:10147000F1D100BF2548C06A00090001E16A0843B4
:101480002249C862616AA06A0843204949683D222E
:101490001204914308431D49486000BF0846006894
:1014A00001210906084319490860FFF7ABF8054612
:1014B00006E0FFF7A7F8401B022801D90320A6E5A4
:1014C000124800680121490608400028F1D01BE0BD
:1014D0000E4800680121090688430C490860FFF79F
:1014E00091F8054606E0FFF78DF8401B022801D968
:1014F00003208CE5054800680121490608400028C2
:10150000F1D101E0012082E5002080E500100240D9
:1015100070B504462546681E0949884201D9012054
:101520000CE0681E074948610321081F01F06AF8B2
:1015300000200449886107200861002070BD000078
:10154000FFFFFF0000E000E070477047024600BF69
:101550003C20805C012801D10220704701233C20FF
:10156000835400BF02233D208354106840687023D9
:10157000984313685860106840680B6818431368F4
:1015800058601068806880239843136898601068DA
:1015900080684B6818431368986001233D2083548A
:1015A00000BF00233C20835400BF0020D5E700008B
:1015B00010B5044602213D20015500BF2068006A95
:1015C0000E49084000280BD12068006A89100840A5
:1015D000002805D1206800684008400021680860A4
:1015E00000BF204600F06EF800213D20015500BFED
:1015F0003C20015500BF002010BD0000111100006B
:10160000F8B504460D460020009000260027002C67
:1016100001D10120F8BD3D20005D002805D1002149
:101620003C200155204600F067F802213D2001557D
:1016300020688068C008C00021688860211D20687B
:1016400001F0A6F82068806800902068866920680C
:10165000076A286800990843009017480640A9695E
:101660000902A86808430643144806401448064087
:10167000E9690902E8680843064328690001296A04
:101680000903084306432221384688430746882138
:101690003846884307466969090168680843074373
:1016A00000982168886020688661206807620121AF
:1016B0003D2001550020ADE7FCFCFFFFF3F3FFFFE9
:1016C0000F0FFFFF10B504460949206888420DD16D
:1016D0000848C069022188430649C861C021092021
:1016E000C006FEF707FE1020FFF770FA10BD0000DD
:1016F000000400400010024010B586B004461421DA
:1017000001A8FEF71CFD1D492068884233D100BFA7
:101710001B48C069022108431949C8610846C069CD
:1017200002210840009000BF00BF00BF144840697C
:1017300009040843124948610846406901214904E7
:101740000840009000BF00BFC0200190022002901E
:1017500001200390002004900120059001A9092098
:10176000C006FEF74DFE002201211020FFF746FAC9
:101770001020FFF737FA06B010BD0000000400404B
:101780000010024030B504460D46002D02D0042D55
:101790000CD105E001220021206801F041F810E0A1
:1017A00001220421206801F03BF80AE00122002117
:1017B000206801F035F801220421206801F030F89A
:1017C00000BF00BF2068006801210843216808604D
:1017D000002030BD30B504460D46002D02D0042D4A
:1017E0000CD105E000221146206801F019F810E044
:1017F00000220421206801F013F80AE000221146BB
:10180000206801F00DF800220421206801F008F89A
:1018100000BF00BF00BF2068006A094908400028D7
:101820000BD12068006A89100840002805D1206883
:101830000068400840002168086000BF002030BDFB
:1018400011110000704710B504462068006902219C
:101850000840400800281CD02068C06808404008A4
:10186000002816D0481F21680861012020772068D1
:1018700080698007800F002803D02046FFF7E2FF31
:1018800005E0204600F0C3F8204600F0C1F8002033
:1018900020772068006904210840800800281DD0B6
:1018A0002068C06808408008002817D0C843216815
:1018B000086102202077206880690321090208401E
:1018C000002803D02046FFF7BDFF05E0204600F0CA
:1018D0009EF8204600F09CF80020207720680069E0
:1018E00008210840C00800281CD02068C0680840B3
:1018F000C008002816D0C84321680861042020775A
:101900002068C0698007800F002803D02046FFF7B9
:1019100099FF05E0204600F07AF8204600F078F8BC
:101920000020207720680069102108400009002865
:101930001DD02068C06808400009002817D0C8439F
:1019400021680861082020772068C0690321090206
:101950000840002803D02046FFF774FF05E020462A
:1019600000F055F8204600F053F80020207720685A
:101970000069C007C00F01214840484000280CD032
:101980002068C068084048404840002805D0C81E6C
:1019900021680861204600F03DF820680069802138
:1019A0000840C00900280BD02068C0680840C00962
:1019B000002805D0C843216808612046FFF7C4FD10
:1019C0002068006940210840800900280BD0206869
:1019D000C06808408009002805D0C8432168086114
:1019E000204600F033F820680069202108404009B3
:1019F00000280BD02068C06808404009002805D0A6
:101A0000C843216808612046FFF79FFD10BD70475D
:101A1000704700000A4A016891420FD1496A094A99
:101A2000914204D9084A00215156491C03E0064A54
:101A300000215156491E49B2034A117070470000F7
:101A40000004004077EC000008000020704700BF51
:101A5000FEE7000010B50848006880690721090208
:101A60000840002803D00448FEF776FE02E0024852
:101A7000FEF7B2FE10BD00005000002010B5024875
:101A8000FEF7BAFE10BD00005000002070B50546FC
:101A90006C6A206840680121C903084321684860D6
:101AA0000020A16B4863E16B48634120005D602822
:101AB00006D12021412001552046FEF719FE02E003
:101AC0002046FEF7AFFE70BD10B503460A46002162
:101AD000D007C00F002809D0422001434120C05C3C
:101AE00028242040282801D0B020014302201040A3
:101AF000022809D1442001434120C05C2824204011
:101B0000282801D0B020014304201040042801D12E
:101B1000B820014311201040112801D19020014329
:101B200012201040122801D1202001431220104021
:101B3000122801D1402001431868006888431C68BE
:101B40002060002010BD000010B503460022204C8C
:101B5000586BA04203D01F4C586BA04218D10420F0
:101B60000840042801D1B820024311200840112860
:101B700001D19020024312200840122801D12020D8
:101B800002431220084012281AD14020024317E0D5
:101B900004200840042801D1B8200243C807C00F20
:101BA000002801D0F220024302200840022801D17F
:101BB000F420024312200840122801D120200243C1
:101BC0001868006810431C682060002010BD0000E9
:101BD000432100084D220008016889690222114052
:101BE0004908002902D000210268916201688969D0
:101BF000C907C90F012251405140002904D1016891
:101C000089691143026891617047F8B5044600275D
:101C100000250026002000904120005D282108407A
:101C2000282854D120688069012109040840070C44
:101C3000206880697F2149040840050C206880687D
:101C40008605B60D2068C068FE2108400090E06857
:101C500002282DD106202840F11106221140884289
:101C600016D13546A06C401CA064A06C02285BD144
:101C70000020A06408202168C86100BF0021402026
:101C8000015500BF2A4639462046FEF733FD4BE09A
:101C9000009D04212046FFF717FF00BF00214020D0
:101CA000015500BF2A4639462046FEF723FD3BE09A
:101CB00004212046FFF708FF00BF00214020015506
:101CC00000BF2A4639462046FEF714FD2CE041208D
:101CD000005D222820D12068806901210904084084
:101CE000070C206880697F2149040840050C072102
:101CF0002046FFF7E9FE10202168C86100BF0021DF
:101D00004020015500BF2046FEF70CFE2A4639460A
:101D10002046FEF7EFFC07E008202168C86100BFFD
:101D200000214020015500BFF8BD000070B50446F9
:101D30000D460021422001553F48E06200206085A9
:101D4000606C284360644120005D282807D0412052
:101D5000005D292803D04120005D2A280BD10321F2
:101D60002046FFF7B1FE28214120015500202063C5
:101D7000324860630DE007212046FFF7A5FE4120B1
:101D8000005D602802D02021412001550020206301
:101D9000606320680068012189030840884215D1EA
:101DA000206800688843216808602548A16B486363
:101DB00000BF00214020015500BFA06BFEF76EFA66
:101DC000002838D0A06B416B884734E02068006859
:101DD0000121C9030840884215D120680068884362
:101DE000216808601648E16B486300BF002140206D
:101DF000015500BFE06BFEF751FA00281BD0E06BE5
:101E0000416B884717E04120005D60280BD12021FD
:101E10004120015500BF00214020015500BF204650
:101E2000FEF766FC07E000BF00214020015500BF1F
:101E30002046FEF7F7FC70BD0000FFFFED22000812
:101E40008D1A000870B504460D461A48E06200205D
:101E5000206300214220015520214120015500200E
:101E6000606304202840002813D02068406AC1B273
:101E7000626A501C60621170208D002809D0208D8C
:101E8000401E2085608D401E6085606C04210843E3
:101E9000606407212046FFF717FE10202168C86103
:101EA00000BF00214020015500BF2046FEF73AFD4B
:101EB00070BD00000000FFFF70B504460D462020F5
:101EC0002168C8612068406834490840216848603A
:101ED0000020206360633248E06210202840002820
:101EE00006D010202168C861606C0421084360643A
:101EF0002046FFF771FE03212046FFF7E5FD606CE9
:101F0000002803D14120005D602804D1616C204687
:101F1000FFF70CFF40E04120005D21281CD120216B
:101F2000412001554220005D40280AD10021422075
:101F3000015500BF4020015500BF2046FEF715FDAA
:101F40002AE000214220015500BF4020015500BF7A
:101F50002046FEF708FD1FE04120005D22281BD12E
:101F60002021412001554220005D40280AD1002156
:101F70004220015500BF4020015500BF2046FEF71A
:101F8000F3FC09E000214220015500BF402001552B
:101F900000BF2046FEF7E6FC70BD000000E800FE32
:101FA0000000FFFF70B504460D4620202168C8617F
:101FB00008202168C86107212046FFF785FD2068B9
:101FC00040680121C90308432168486020684068CF
:101FD00041490840216848602046FFF7FDFD206820
:101FE0000068012189030840884205D02068006804
:101FF0004900084088420BD14120005D212803D1CF
:10200000A06B0068406802E0E06B00684068608593
:10201000608D002803D0606C0421084360640420B4
:102020002840002813D02068406AC1B2626A501C60
:1020300060621170208D002809D0208D401E2085FF
:10204000608D401E6085606C042108436064002040
:10205000206300214220015500206063606C00284D
:102060000CD0616C2046FFF761FE4120005D2828FE
:1020700031D129462046FFF7E5FE2CE0E06A1749FA
:1020800088420DD00846E06220214120015500BF62
:1020900000214020015500BF2046FEF743FC1AE016
:1020A0004120005D22280BD120214120015500BF95
:1020B00000214020015500BF2046FEF7A1FC0AE0A8
:1020C00020214120015500BF00214020015500BFC3
:1020D0002046FEF7A9FC70BD00E800FE0000FFFFEF
:1020E00010B504460021422001554120005D2928F9
:1020F00011D12821412001552120206301212046B2
:10210000FFF7E2FC00BF00214020015500BF204640
:10211000FEF78AFC14E04120005D2A2810D1282116
:10212000412001552220206302212046FFF7CCFCEC
:1021300000BF00214020015500BF2046FEF760FC93
:1021400010BDFEB504460D4616460027002001903E
:1021500000BF4020005D012801D10220FEBD012109
:102160004020015500BF10202840002812D0102028
:10217000304000280ED010202168C861606C042116
:102180000843606412212046FFF7DEFC2046FFF77B
:1021900023FD54E080202840002844D040203040D7
:1021A000002840D0206800684021884321680860EA
:1021B000608D002832D0206840688705BF0D608D93
:1021C000FF2805D9FF20208501200006019004E0AA
:1021D000608D208501204006019000200090208D18
:1021E000C2B239462046019B00F036F9608D218D40
:1021F000401A60854120005D222807D120680068D0
:102200000121C90308432168086018E020680068BC
:102210000121890308432168086010E0402120461D
:10222000FFF784FD0BE020202840002807D0202065
:102230003040002803D029462046FFF73DFE00BF6E
:1022400000214020015500BF002087E770B50446FB
:102250000D46164600BF4020005D012801D1022036
:1022600070BD01214020015500BF102028400028EA
:102270001CD010203040002818D04120005D2128BB
:1022800003D1A06B0068406802E0E06B0068406822
:10229000002803D110202168C8611FE010202168A8
:1022A000C861606C04210843606417E0082028407E
:1022B000002807D008203040002803D008202168DB
:1022C000C8610BE020202840002807D020203040A3
:1022D000002803D029462046FFF764FE00BF0021F6
:1022E0004020015500BF0020BAE7000070B5044649
:1022F0000D46164600BF4020005D012801D1022096
:1023000070BD01214020015500BF10202840002849
:1023100034D010203040002830D0608D002825D1E6
:10232000E06A4906884202D0E06A884208D141202A
:10233000005D282804D129462046FFF783FD76E07A
:10234000E06A444988420DD04120005D292809D126
:1023500010202168C8612046FFF73EFC2046FFF7A9
:10236000BFFE64E010202168C86160E01020216891
:10237000C861606C04210843606458E00420284070
:10238000002821D00420304000281DD0608D002876
:102390000DD02068406AC1B2626A501C6062117040
:1023A000208D401E2085608D401E608501E02068E4
:1023B000406A608D00283AD1E06A2649884236D0CA
:1023C0002046FFF78DFE32E008202840002808D084
:1023D00008203040002804D029462046FFF715FC8D
:1023E00025E002202840002821D00220304000288B
:1023F0001DD0608D00280CD0616A481C606208788E
:1024000021688862608D401E6085208D401E208579
:102410000DE0FF2021688862E06A012109068842F8
:1024200002D0E06A002802D12046FFF759FE2020A2
:102430002840002807D020203040002803D029461B
:102440002046FFF7AFFD00BF00214020015500BF2F
:10245000002055E70000FFFFF0B50C46002105689D
:102460006968084D2940A505AD0D1604FF273F04F6
:102470003E4035431D43059E354329430568696049
:10248000F0BD0000009800FC00B587B0142102A840
:10249000FDF755FE00BF204840690121490408436B
:1024A0001D494861084640690121490408400190DE
:1024B00000BF00BF00BF18484069490008431649E3
:1024C000486108464069012189040840019000BF25
:1024D00000BF01200290039004900020059002A903
:1024E0000920C006FDF78CFFC02002900020039059
:1024F000049002A90920C006FDF782FF2020029067
:10250000002003900120049002A90920C006FDF7D5
:1025100077FF07B000BD00000010024010B513485F
:1025200013490860134848608021114881600121E7
:10253000C1600021016141618161C1610162FEF7F9
:1025400087F9002801D0FDF771FE00210848FEF749
:102550005FF8002801D0FDF769FE00210448FEF76E
:102560008EF8002801D0FDF761FE10BD0054004038
:10257000500000200E09002000B58BB0242102A8D5
:10258000FDF7DDFD0020009001901A481A4908600F
:10259000002048600021184881601849C16000216E
:1025A00001618021816103200290002003900120BD
:1025B000049000200590082006900020079001203C
:1025C00008900020099008200A9002A90A48FFF705
:1025D00017F8002801D0FDF729FE00200090019097
:1025E00069460548FEF7B2FF002801D0FDF71EFE40
:1025F0000BB000BD000400409C000020FFFF000065
:102600007047000010B5002819DA1A4A03071B0F9B
:10261000083B9B089B00D2588307DC0EFF23A34096
:102620009A438B071B0E8407E40EA3401A43114BF9
:102630000407240F083CA408A4001A5118E00E4A0D
:1026400003231B02D21883089B00D2588307DC0E99
:10265000FF23A3409A438B071B0E8407E40EA3407D
:102660001A43054B032424021B198408A4001A51A1
:1026700010BD00001CED00E000E100E07047704775
:1026800010B5FEF757FA10BD00B595B0302109A876
:10269000FDF755FD002005900690079008900190E9
:1026A0000290039004900220099001200C901020C9
:1026B0000D9002201190002112910521C90413915F
:1026C0000021149109A8FEF77DFC002801D0FDF738
:1026D000ADFD07200590022006900020079008908D
:1026E000012105A8FEF73CFB002801D0FDF79EFD67
:1026F000202001900020049001A8FEF789FA00280C
:1027000001D0FDF793FD15B000BD00001948006829
:1027100001210843174908600846406816490840E7
:102720001449486008460068144908401149086087
:10273000084600680121890488430E49086008465C
:1027400040683F21090488430A4948600846C06A36
:1027500000090001C8620846006BFF21143188435C
:10276000044908630846406B400840004863002065
:1027700088607047001002400CB8FF08FFFFF6FEAB
:1027800010B50248FFF75FF810BD00009C00002064
:1027900010B5002202681D4B984202D01C4B984293
:1027A00005D170241346A3431A464B681A43174BAE
:1027B00098420BD0164B984208D0164B984205D041
:1027C000154B984202D0154B984206D1032424029F
:1027D0001346A3431A46CB681A4380241346A343E7
:1027E0004C6923431A4602608B68C3620B6883629C
:1027F000064B984205D0084B984202D0074B9842AE
:1028000001D10B6903630123436110BD002C01401A
:102810000004004000200040004401400048014006
:1028200030B5002301248C402346046A9C43046293
:10283000046A15468D402C43046230BD02E008C88E
:10284000121F08C1002AFAD170477047002001E02A
:1028500001C1121F002AFBD1704710B50446002C9D
:1028600002D1FDF7ADFC03E0012C01D100F02CFA00
:1028700010BD10B50446002C02D1FDF7B5FC03E0F5
:10288000012C01D100F02AFA10BD0146002067E0BA
:102890001722131A01229A400A40002A32D001223C
:1028A0000923DB069A6100BF00BF00BF00BF00BF65
:1028B00000BF00BF00BF00BF00BF00BF00BF00BF20
:1028C00000BF00BF00BF00BF00BF00BF00BF00BF10
:1028D00000BF00BF00BF00BF00BF00BF00BF00BF00
:1028E00000BF00BF00BF00BF00BF00BF00BF01228C
:1028F0000923DB069A6200BF00BF00BF00BF00BF14
:1029000000BF2BE001220923DB069A6100BF00BF54
:1029100000BF00BF00BF00BF00BF00BF00BF00BFBF
:1029200000BF00BF01220923DB069A6200BF00BF7F
:1029300000BF00BF00BF00BF00BF00BF00BF00BF9F
:1029400000BF00BF00BF00BF00BF00BF00BF00BF8F
:1029500000BF00BF00BF00BF00BF00BF421CD0B21D
:10296000182895DB7047000010B52448007800282F
:102970003BD123480068406A224908802248002150
:10298000415600290DDA1F4800880121090440182A
:102990001E490988401A1E49098840181C490880A8
:1029A0001CE019480021415600290DDD154800881A
:1029B00001210904401A15490988401A1449098857
:1029C00040181349088009E00E4800880F4909881B
:1029D000401A0F49098840180D49088009480088A5
:1029E0000A49088000200849087020210920C006F3
:1029F000FDF7FEFD0749087010BD00000F00002024
:102A00009C00002004000020080000200600002098
:102A10000A0000200E0000207047000070B5044638
:102A20000D462078002824D16078002801D10120AB
:102A300000E000206178012900D100E00021084376
:102A4000002815D06078484900228A569042F8D074
:102A50000020464908804649088043490878FFF726
:102A6000FCFE607840B2404908700878FFF701FF2B
:102A700079E0207810282BD1012D11D13A48007827
:102A8000002804D10221394800F076F86BE036487E
:102A90000078012867D10221354800F06DF862E026
:102AA000012D60DD30480078002806D16078A178DB
:102AB000090208432D49088055E02B480078012879
:102AC00051D16078A17809020843294908804AE079
:102AD000012D07D12078202804D10121254800F0BC
:102AE0004BF840E02078302829D16078032801DABB
:102AF000012000E000206178002901DD012100E0D3
:102B00000021084000280DD0A2781204E3781B02AF
:102B10001A4323791A4311466278521ED0B200F04C
:102B2000A9F809E0A1780904E27812021143227998
:102B30001143084600F082F800F0AEF813E0207868
:102B4000402810D1607800280DD007480078002870
:102B500002D10649088006E003480078012802D126
:102B600000200349088070BD0F0000200A000020EB
:102B70000C0000200E00002070B505460C46142CF9
:102B800000DD142406480480002C01D0002D00D163
:102B900070BD224629460348FDF7B8FA00BFF7E7A3
:102BA000000000203C000020FDF7CCFFFFF76CFD8B
:102BB000FFF76AFCFFF7B2FC0020FFF75AFE022085
:102BC00000F0CAF8FEF75AFF01E0FFF7CDFEFCE780
:102BD000F0B50B30C108C900144F0026144A0FE0AD
:102BE00003688B420BD38B4205D95C1A43184568A6
:102BF00030C3083B00E04368136002C004E0021DDC
:102C000010680028ECD13046002803D1386800282D
:102C100001D00020F0BD064A06481060064A121A8C
:102C2000D208D20044C001203860D7E72400002039
:102C300020000020E4000020E0020020F0B5002188
:102C40000EE005022A0E05042B0EC4B21D04160266
:102C5000354325438E00054F3F68BD514A1CD1B214
:102C6000034A12789142ECDBF0BD00001400002012
:102C700010000020F0B50D022A0E0D042B0ECCB270
:102C80001D041602354325438600024F3F68BD519F
:102C9000F0BD00001400002010B572B6002407E05B
:102CA000A100074A12685058FFF7EFFD601CC4B23C
:102CB000044800788442F3DB62B600F02DF810BDC2
:102CC000140000201000002010B540210920C0068B
:102CD000FDF710FB0720FDF779FF10BD00B585B0AB
:102CE00014216846FDF72BFA402000900948019016
:102CF0000120029069460920C006FDF781FB0022F1
:102D000011460720FDF77AFF0720FDF76BFF05B09E
:102D100000BD000000001110002019E000BF00BF3E
:102D200000BF00BF00BF00BF00BF00BF00BF00BFAB
:102D300000BF00BF00BF00BF00BF00BF00BF00BF9B
:102D400000BF00BF00BF00BF00BF00BF411CC8B232
:102D50007128E3DB7047000010B50446FDF768FA00
:102D600004212046FDF7F6F9024908600248047084
:102D700010BD000014000020100000200000000022
:102D8000000000000102030406070809000000001B
:102D900001020304B42D00080000002028000000F8
:102DA0003C280008DC2D000828000020B8060000A0
:102DB0004C28000800000000000000800100000016
:102DC0000000000000000000000000000000000003
:0C2DD00000127A0000000000000000006B
:04000005080000B13E
:00000001FF
